:0400000007EF00F016
:100008006D82FDED10F067EF1EF0000E0101746FB8
:10001800000E756F000E766F000E776F2EEF02F0F0
:10002800AC98AC94B896FCC0D9FFFDC0DAFFDECF1F
:1000380013F0DECF14F0DECF15F0DECF16F0000E91
:10004800B8EC09F013C03EF014C03FF015C040F002
:1000580016C041F0000E3A6E240E3B6EF40E3C6E54
:100068004A0E3D6EF2EC06F03AC078F13BC079F1E9
:100078003CC07AF13DC07BF1000E3E6E000E3F6E33
:10008800800E406E420E416E78C13AF079C13BF065
:100098007AC13CF07BC13DF0F2EC06F03AC053F077
:1000A8003BC054F03CC055F03DC056F0000E576EB2
:1000B800000E586E800E596EBF0E5A6E7CEC02F020
:1000C80053C074F154C075F155C076F156C077F13C
:1000D8005AEF02F0AC98AC84B896FCC0D9FFFDC0CA
:1000E800DAFFDECF13F0DECF14F0DECF15F0DECF6F
:1000F80016F0000EB8EC09F013C03EF014C03FF043
:1001080015C040F016C041F0000E3A6E240E3B6E4A
:10011800F40E3C6E4A0E3D6EF2EC06F03AC078F1F1
:100128003BC079F13CC07AF13DC07BF1000E3E6ED8
:10013800000E3F6E800E406E410E416E78C13AF05F
:1001480079C13BF07AC13CF07BC13DF0F2EC06F09E
:100158003AC053F03BC054F03CC055F03DC056F097
:10016800000E576E000E586E800E596EBF0E5A6EF6
:100178007CEC02F053C074F154C075F155C076F1AF
:1001880056C077F15AEF02F0AC98AC94B886FCC030
:10019800D9FFFDC0DAFFDECF13F0DECF14F0DECFDB
:1001A80015F0DECF16F0000EB8EC09F013C03EF0E3
:1001B80014C03FF015C040F016C041F0000E3A6E72
:1001C800240E3B6EF40E3C6E4A0E3D6EF2EC06F0C9
:1001D8003AC078F13BC079F13CC07AF13DC07BF17F
:1001E800000E3E6E000E3F6E800E406E410E416E58
:1001F80078C13AF079C13BF07AC13CF07BC13DF05F
:10020800F2EC06F03AC053F03BC054F03CC055F055
:100218003DC056F0000E576E000E586E800E596E97
:10022800BF0E5A6E7CEC02F053C074F154C075F1E5
:1002380055C076F156C077F15AEF02F0AC98AC840D
:10024800B886FCC0D9FFFDC0DAFFDECF13F0DECFE1
:1002580014F0DECF15F0DECF16F0000EB8EC09F082
:1002680013C03EF014C03FF015C040F016C041F076
:10027800000E3A6E240E3B6EF40E3C6E4A0E3D6E36
:10028800F2EC06F03AC078F13BC079F13CC07AF163
:100298003DC07BF1000E3E6E000E3F6E800E406E3C
:1002A800400E416E78C13AF079C13BF07AC13CF01A
:1002B8007BC13DF0F2EC06F03AC053F03BC054F07D
:1002C8003CC055F03DC056F0000E576E000E586EFB
:1002D800800E596EBF0E5A6E7CEC02F053C074F15A
:1002E80054C075F155C076F156C077F15AEF02F057
:1002F800AC88B896FCC0D9FFFDC0DAFFDECF13F09A
:10030800DECF14F0DECF15F0DECF16F0000EB8EC1D
:1003180009F013C03EF014C03FF015C040F016C0FD
:1003280041F0000E3A6E240E3B6EF40E3C6E4A0EFF
:100338003D6EF2EC06F03AC078F13BC079F13CC072
:100348007AF13DC07BF1000E3E6E000E3F6E800ECE
:10035800406E400E416E78C13AF079C13BF07AC1E7
:100368003CF07BC13DF0F2EC06F03AC053F03BC0E4
:1003780054F03CC055F03DC056F0000E576E000ECC
:10038800586E800E596EBF0E5A6E7CEC02F053C048
:1003980074F154C075F155C076F156C077F15AEF33
:1003A80002F0AC88B886FCC0D9FFFDC0DAFFDECF0A
:1003B80013F0DECF14F0DECF15F0DECF16F0000E0E
:1003C800B8EC09F013C03EF014C03FF015C040F07F
:1003D80016C041F0000E3A6E240E3B6EF40E3C6ED1
:1003E8004A0E3D6EF2EC06F03AC078F13BC079F166
:1003F8003CC07AF13DC07BF1000E3E6E000E3F6EB0
:10040800800E406E400E416E78C13AF079C13BF0E3
:100418007AC13CF07BC13DF0F2EC06F03AC053F0F3
:100428003BC054F03CC055F03DC056F0000E576E2E
:10043800000E586E800E596EBF0E5A6E7CEC02F09C
:1004480053C074F154C075F155C076F156C077F1B8
:100458005AEF02F0000120EE04F0FC51D926FD51BC
:10046800DA22DF50FE6FFF6BFF51000AD8B43FEF6E
:1004780002F05AEF02F0FE51000AD8B414EF00F06F
:10048800010AD8B46EEF00F0030AD8B4C8EF00F040
:10049800010AD8B422EF01F0070AD8B47CEF01F0C2
:1004A800010AD8B4D5EF01F05AEF02F074C1F2F0A6
:1004B80075C1F3F076C1F4F077C1F5F0EEEC13F006
:1004C8000001F251AF6E74C1F2F075C1F3F076C15C
:1004D800F4F077C1F5F0EEEC13F00001F3C0F2F0A0
:1004E800F4C0F3F0F5C0F4F0F56BF251B06E120001
:1004F8005650800B0001EE6F56505624F06F55AEE3
:1005080088EF02F08AEF02F08BEF02F0F081F051F1
:10051800D8B491EF02F093EF02F0A8EF02F0F029BF
:10052800D8A499EF02F09BEF02F0A3EF02F0000EBF
:10053800536E000E546E000E556E000E566E558E9C
:10054800000E566EB0EF02F0000E536E000E546EA1
:10055800000E556E000E566E5A50800BEF6FEE511E
:10056800EF19D8B4BAEF02F0BCEF02F0BDEF02F019
:10057800EE8D5A505A24EF6F59AEC5EF02F0C7EF0F
:1005880002F0C8EF02F0EF81EF51D8B4CEEF02F0DD
:10059800D0EF02F0E5EF02F0EF29D8A4D6EF02F091
:1005A800D8EF02F0E0EF02F0000E576E000E586E22
:1005B800000E596E000E5A6E598E000E5A6EEDEFEF
:1005C80002F0000E576E000E586E000E596E000EA7
:1005D8005A6EF051EF5DD8B0F4EF02F0F6EF02F08A
:1005E8001DEF03F0EEADFBEF02F0FDEF02F0FFEFC1
:1005F80002F0800EEE1BF0C0F1F0EFC0F0F0F1C099
:10060800EFF053C0F1F057C053F0F1C057F054C0A9
:10061800F1F058C054F0F1C058F055C0F1F059C08D
:1006280055F0F1C059F056C0F1F05AC056F0F1C07B
:100638005AF0000EF16FF051EFC0EAF0EB6BEA5F91
:10064800000EEB5BEBBF32EF03F0EB5109E11A0E42
:10065800EA5DD8A032EF03F034EF03F06BEF03F05C
:100668005350541055105610D8A43DEF03F040EFE6
:1006780003F0010E41EF03F0000EF16F000E536E10
:10068800000E546E000E556E000E566EEFC0F0F060
:1006980074EF03F0F1A153EF03F055EF03F05BEFB4
:1006A80003F0D890F1310109F16F5DEF03F0D890B4
:1006B800F13353A062EF03F064EF03F065EF03F04A
:1006C800F18F56345632553254325332F02BEF51A3
:1006D800F05DD8A072EF03F074EF03F04EEF03F073
:1006E800EEBD79EF03F07BEF03F0BBEF03F0F051C1
:1006F800D8A481EF03F083EF03F08DEF03F0000E31
:10070800536E000E546E000E556E000E566EDCEFE2
:1007180004F05750532658505422595055225A50D5
:10072800562256A09AEF03F09CEF03F048EF04F02E
:10073800F1A1A1EF03F0A3EF03F0A9EF03F0D89024
:10074800F1310109F16FABEF03F0D890F13353A009
:10075800B0EF03F0B2EF03F0B3EF03F0F18F5634CC
:100768005632553254325332F02B48EF04F057507A
:10077800535C58505458595055585650800AEA6F8F
:100788005A50800AEA59D8B0CCEF03F0CEEF03F004
:10079800F9EF03F05350575CEA6F54505858EB6F19
:1007A80055505958EC6F56505A58ED6FFF0EEA25C0
:1007B800536EFF0EEB21546EFF0EEC21556EFF0EAB
:1007C800ED21566E800EEE1BF16DF151D8A4EFEFBE
:1007D80003F0F1EF03F001EF04F0010E5326000ED1
:1007E80054225522562201EF04F05750535E5850B8
:1007F800545A5950555A5A50565A53505410551025
:100808005610D8A40AEF04F00CEF04F041EF04F0FE
:10081800F151D8A412EF04F014EF04F041EF04F002
:10082800000E536E000E546E000E556E000E566E7E
:10083800DCEF04F0D8905336543655365636F1AFBF
:1008480028EF04F02AEF04F02BEF04F05380F1A115
:1008580030EF04F032EF04F036EF04F0D880F137CF
:1008680038EF04F0D890F137F051D8B43EEF04F0E7
:1008780040EF04F041EF04F0F00755AE46EF04F006
:1008880048EF04F01EEF04F0000EEF6FF1AF4FEFEA
:1008980004F051EF04F069EF04F0F1C0EAF07F0EC4
:1008A800EA17D8B45AEF04F05CEF04F060EF04F0F4
:1008B800010EEF6F69EF04F053A065EF04F067EFE6
:1008C80004F069EF04F05CEF04F0EF51D8B46FEF77
:1008D80004F071EF04F09CEF04F0010E5326000EB3
:1008E80054225522562256A07CEF04F07EEF04F0E5
:1008F8009CEF04F053C0EAF054C0EBF055C0ECF0A4
:1009080056C0EDF0ED35ED33EC33EB33EA33EAC0A6
:1009180053F0EBC054F0ECC055F0EDC056F0F029A0
:10092800D8B499EF04F09BEF04F09CEF04F0F02B9F
:10093800F029D8B4A2EF04F0A4EF04F0ACEF04F06F
:10094800F051D8A4AAEF04F0ACEF04F0BEEF04F025
:10095800000E536E000E546E000E556E000E566E4D
:10096800F051D8A4BAEF04F0BCEF04F0BEEF04F0E5
:10097800000EEE6FF0A1C3EF04F0C5EF04F0C8EF6E
:1009880004F0558EC9EF04F0559ED890F031566E9C
:10099800EEAFD1EF04F0D3EF04F0D4EF04F0568EAD
:1009A80053C053F054C054F055C055F056C056F0DB
:1009B80012002450800B2D6E24502424336E23AE55
:1009C800E8EF04F0EAEF04F0EBEF04F03380335083
:1009D800D8B4F1EF04F0F3EF04F006EF05F0332894
:1009E800D8A4F9EF04F0FBEF04F003EF05F0000ED4
:1009F800216E000E226E000E236E000E246E238ED2
:100A08000EEF05F0000E216E000E226E000E236E12
:100A1800000E246E2850800B2D1A285028242E6E84
:100A280027AE19EF05F01BEF05F01CEF05F02E803F
:100A38002E50D8B422EF05F024EF05F037EF05F07B
:100A48002E28D8A42AEF05F02CEF05F034EF05F096
:100A5800000E256E000E266E000E276E000E286E04
:100A6800278E3FEF05F0000E256E000E266E000E55
:100A7800276E000E286E2E50D8B445EF05F047EFCC
:100A880005F04FEF05F03350D8A44DEF05F04FEFC8
:100A980005F059EF05F0000E216E000E226E000ED3
:100AA800236E000E246EF1EF06F027502102F3CFDB
:100AB80038F0F4CF39F038502F6E306A316A326A24
:100AC8003950346E356A366A376A26502202F3CFB7
:100AD80038F0F4CF39F038502F26000E302231226A
:100AE800322239503426000E35223622372225503C
:100AF8002302F3CF38F0F4CF39F038502F26000E08
:100B080030223122322239503426000E3522362244
:100B1800372231C032F030C031F02FC030F02F6AA8
:100B280025502202F3CF38F0F4CF39F038502F2671
:100B380039503022000E3122000E32222650210276
:100B4800F3CF38F0F4CF39F038502F26395030220F
:100B5800000E3122000E322231C032F030C031F0A6
:100B68002FC030F02F6A25502102F3CF38F0F4CF90
:100B780039F038502F2639503022000E3122000E1D
:100B8800322227502202F3CF38F0F4CF39F0385010
:100B9800342639503522000E3622000E37222650D0
:100BA8002302F3CF38F0F4CF39F0385034263950D7
:100BB8003522000E3622000E372227502302F3CFAB
:100BC80038F0F4CF39F03850296E39502A6E2B6A34
:100BD8002C6A2BC02CF02AC02BF029C02AF0296AD5
:100BE800295034262A5035222B5036222C503722B1
:100BF8002FC029F030C02AF031C02BF032C02CF0C1
:100C0800190E0CEF06F0D8902C322B322A322932EA
:100C1800E82E07EF06F0295034262A5035222B50AB
:100C280036222C50372231C032F030C031F02FC07C
:100C380030F02F6A2E5033C029F02A6A2926000E78
:100C48002A22820E2924386EFF0E2A20396E42EF9E
:100C580006F0D890343635363636373632AE37EF7A
:100C680006F039EF06F03AEF06F03480D8902F36C8
:100C78003036313632363806D8A0390636AE47EF28
:100C880006F049EF06F02DEF06F0000E2E6E32AE9C
:100C980050EF06F052EF06F076EF06F0FF0E2F1435
:100CA800296EFF0E30142A6EFF0E31142B6E7F0E44
:100CB80032142C6E29502A102B102C10D8B467EF40
:100CC80006F069EF06F06DEF06F0010E2E6E76EF76
:100CD80006F034A072EF06F074EF06F076EF06F037
:100CE80069EF06F02E50D8B47CEF06F07EEF06F0E0
:100CF800A2EF06F0010E3426000E352236223722E6
:100D080037A089EF06F08BEF06F0A2EF06F034C0AB
:100D180029F035C02AF036C02BF037C02CF02C341F
:100D28002C322B322A32293229C034F02AC035F02D
:100D38002BC036F02CC037F0384A392A39BEADEF0F
:100D480006F0395008E13828D8A0ADEF06F0AFEF2B
:100D580006F0B9EF06F0000E346E000E356E800E08
:100D6800366E7F0E376EE7EF06F039BEC6EF06F037
:100D7800395006E13804D8B0C4EF06F0C6EF06F0E3
:100D8800D2EF06F0000E346E000E356E000E366E91
:100D9800000E376E000E2D6EE7EF06F038C033F008
:100DA800FF0E3416FF0E35167F0E3616000E371658
:100DB80033A0E1EF06F0E3EF06F0E4EF06F0368E3D
:100DC800D8903330376E2D50371234C021F035C0EB
:100DD80022F036C023F037C024F012003D50800BBB
:100DE8004A6E3D503D24516E3CAEFDEF06F0FFEFDC
:100DF80006F000EF07F051805150D8B406EF07F025
:100E080008EF07F01DEF07F05128D8A40EEF07F000
:100E180010EF07F018EF07F0000E3A6E000E3B6E69
:100E2800000E3C6E000E3D6E3C8E000E3D6E25EFB2
:100E380007F0000E3A6E000E3B6E000E3C6E000E80
:100E48003D6E4150800B4A1A41504124526E40AECB
:100E580030EF07F032EF07F033EF07F052805250CF
:100E6800D8B439EF07F03BEF07F050EF07F05228FE
:100E7800D8A441EF07F043EF07F04BEF07F0000E5F
:100E88003E6E000E3F6E000E406E000E416E408EAC
:100E9800000E416E58EF07F0000E3E6E000E3F6EDA
:100EA800000E406E000E416E3E503F104010411043
:100EB800D8A461EF07F063EF07F07BEF07F0000EAF
:100EC8003A6E000E3B6E000E3C6E000E3D6E800EBC
:100ED8003C127F0E3D124A503D123AC03AF03BC0D8
:100EE8003BF03CC03CF03DC03DF0BEEF08F0515037
:100EF800D8A481EF07F083EF07F08DEF07F0000E1D
:100F08003A6E000E3B6E000E3C6E000E3D6EBEEF5C
:100F180008F0525051C042F0436A425E000E435AF4
:100F28007F0E42244B6E000E43204C6E3AC046F0B2
:100F38003BC047F03CC048F03DC049F0000E3A6E57
:100F4800000E3B6E000E3C6E000E3D6E000E4D6EA8
:100F5800000E4E6E000E4F6E000E506E000E526E5A
:100F6800EEEF07F05250D8B4BCEF07F0BEEF07F031
:100F7800D5EF07F0D8904636473648364936D890E8
:100F88003A363B363C363D3650AECDEF07F0CFEF24
:100F980007F0D0EF07F03A80D8904D364E364F36EE
:100FA80050363E50465C3F50475840504858415094
:100FB8004958D8A0E2EF07F0E4EF07F0EDEF07F0AB
:100FC800508C3E50465E3F50475A4050485A415018
:100FD800495A522A190E5264F4EF07F0F6EF07F057
:100FE800B6EF07F04650471048104910D8B4FFEF45
:100FF80007F001EF08F019EF08F04D8019EF08F03D
:10100800D8903A363B363C363D3650AE0EEF08F0B7
:1010180010EF08F011EF08F03A80D8904D364E36B0
:101028004F3650364B06D8A04C063CAE1EEF08F0A3
:1010380020EF08F004EF08F0000E526E50AE27EFD4
:1010480008F029EF08F04DEF08F0FF0E4D14426E3E
:10105800FF0E4E14436EFF0E4F14446E7F0E501455
:10106800456E4250431044104510D8B43EEF08F086
:1010780040EF08F044EF08F0010E526E4DEF08F013
:101088003AA049EF08F04BEF08F04DEF08F040EFB9
:1010980008F05250D8B453EF08F055EF08F079EF44
:1010A80008F0010E3A26000E3B223C223D223DA0CC
:1010B80060EF08F062EF08F079EF08F03AC042F00C
:1010C8003BC043F03CC044F03DC045F04534453298
:1010D80044324332423242C03AF043C03BF044C04B
:1010E8003CF045C03DF04B4A4C2A4CBE84EF08F01A
:1010F8004C5008E14B28D8A084EF08F086EF08F0A0
:1011080091EF08F0000E4C6E4B68000E3A6E000E20
:101118003B6E000E3C6E000E3D6E4CBE9EEF08F01E
:101128004C5006E14B04D8B09CEF08F09EEF08F055
:10113800ACEF08F0000E4C6E000E4B6E000E3A6ECF
:10114800000E3B6E000E3C6E000E3D6E000E4A6EA9
:101158004BC051F051A0B3EF08F0B5EF08F0B8EF6D
:1011680008F03C8EB9EF08F03C9ED89051303D6EA7
:101178006FEF07F01200000E01017F6F040E186E6A
:10118800A00ED5EC1DF00101806F640E216E000EDB
:10119800226E010E236E8FEC23F0640E2B6E000E70
:1011A8002C6E010E2D6E010E2E6EC10E2F6EFE0ED0
:1011B800306E8AEC1DF0640E2B6E000E2C6E020E43
:1011C8002D6E040E2E6E1B0E2F6EFE0E306E8AECE8
:1011D8001DF097EC19F001017E6F7E05D8A4F7EF9A
:1011E80008F0F9EF08F0FBEF08F0ABEF09F0640E38
:1011F800216E000E226E010E236E8FEC23F0AE0ED0
:10120800136E000E146EB20E156E000E166E5CECA8
:1012180025F001017F6F7F05D8A415EF09F017EFBE
:1012280009F08AEF09F0640E2B6E000E2C6E010E89
:101238002D6E010E2E6E7D0E2F6EFF0E306E8AEC17
:101248001DF0640E2B6E000E2C6E020E2D6E010E1C
:101258002E6ED40E2F6EFE0E306E8AEC1DF000EC52
:1012680027F06A0E1D6E000E1E6E31EC22F0000192
:10127800AC51D8A442EF09F044EF09F053EF09F05C
:10128800090E01017D6F1E0E7C6FE40EE82EFED75D
:101298007C2FFCD77D2FFAD700F079EF09F0AC0549
:1012A800D8A459EF09F05BEF09F079EF09F069EF7D
:1012B80009F06EEC28F0B0EC0FF0FCC080F0FDC037
:1012C80081F0FEC082F0FFC083F0000183518211DB
:1012D800811109E11F0E805DD8A075EF09F077EF45
:1012E80009F05DEF09F0000EAC6F22EC27F06A0EF2
:1012F8001D6E000E1E6E6CEC22F0040E186E010EB0
:10130800196EA00EA1EC24F0ABEF09F0030E8019C2
:10131800D8A491EF09F093EF09F09EEF09F0C2EC21
:1013280016F0040E186E80C119F0A00EA1EC24F07E
:10133800C9EF08F06DEC24F00101802B040E186E43
:1013480080C119F0A00EA1EC24F0C9EF08F0640EDA
:10135800216E000E226E010E236E8FEC23F0000E1C
:10136800636E01017F5112001B6E1B50D8B4BFEF92
:1013780009F0C1EF09F0E3EF09F016BEC8EF09F074
:10138800C6EF09F0E3EF09F013C017F014C018F026
:1013980015C019F016C01AF0171E181E191E1A1EAD
:1013A800172A000E182219221A2217C01DF018C079
:1013B8001EF019C01FF01AC020F0EBEF09F013C09F
:1013C8001DF014C01EF015C01FF016C020F01350F9
:1013D800141015101610D8A4F4EF09F0F6EF09F060
:1013E80000EF0AF0000E136E000E146E000E156E5C
:1013F800000E166E91EF0AF0960E1C6E0AEF0AF0B8
:101408001C2AD89020321F321E321D32000E1D14A5
:10141800176E000E1E14186E000E1F14196EFE0EA5
:1014280020141A6E1750181019101A10D8A41FEF8C
:101438000AF021EF0AF004EF0AF02FEF0AF01C2A55
:10144800010E1D26000E1E221F222022D8902032B7
:101458001F321E321D32000E1D14176E000E1E1490
:10146800186E000E1F14196EFF0E20141A6E1750F6
:10147800181019101A10D8A444EF0AF046EF0AF011
:1014880023EF0AF04EEF0AF01C06D8901D361E36E0
:101498001F3620361FBE53EF0AF055EF0AF05DEFF6
:1014A8000AF0020E1C605BEF0AF05DEF0AF048EFED
:1014B8000AF01CB062EF0AF064EF0AF065EF0AF078
:1014C8001F9ED8901C321CC017F0186A196A1A6A35
:1014D80017C01AF0196A186A176A17501D1218509F
:1014E8001E1219501F121A5020121B50D8B47FEF29
:1014F8000AF081EF0AF089EF0AF016BE88EF0AF0C9
:1015080086EF0AF089EF0AF0208E1DC013F01EC086
:1015180014F01FC015F020C016F01200640E216EE2
:10152800000E226E010E236E8FEC23F0300E0001A8
:10153800AB19D8B4A2EF0AF0A4EF0AF017EF0BF03A
:10154800640E2B6E000E2C6E010E2D6E010E2E6E8B
:101558005C0E2F6EFE0E306E8AEC1DF0640E2B6E44
:10156800000E2C6E020E2D6E030E2E6EABC02FF0E9
:10157800BBEC26F0640E256E000E266EAF0E276EAD
:10158800FE0E286E31EC25F0640E2B6E000E2C6ECC
:10159800030E2D6E010E2E6E470E2F6EFE0E306E50
:1015A8008AEC1DF0640E2B6E000E2C6E040E2D6E50
:1015B800010E2E6E990E2F6EFE0E306E8AEC1DF007
:1015C800100E0101826F390E816F0D0EE82EFED7C5
:1015D800812FFCD7822FFAD700D0010E0001AC6F03
:1015E800BFEC08F00101836F8305D8A4FEEF0AF071
:1015F80000EF0BF012EF0BF00001AB07820E0101B8
:10160800816FDD0EE82EFED7812FFCD700D0060EA5
:10161800186EABC019F0A00EA1EC24F0000E00016A
:10162800AC6F61EF0BF0300EAB19D8A41EEF0BF0C6
:1016380020EF0BF061EF0BF0640E2B6E000E2C6E9A
:10164800010E2D6E010E2E6ED10E2F6EFF0E306E16
:101658008AEC1DF0640E2B6E000E2C6E020E2D6EA1
:10166800010E2E6EE70E2F6EFE0E306E8AEC1DF008
:10167800640E2B6E000E2C6E030E2D6E010E2E6E58
:10168800AD0E2F6EFE0E306E8AEC1DF0090E0101B4
:10169800826F1E0E816FE40EE82EFED7812FFCD7D5
:1016A800822FFAD700F0000E636E640E216E000ED2
:1016B800226E010E236E8FEC23F0120031BE67EF0D
:1016C8000BF06AEF0BF0010E6BEF0BF0000E386EAB
:1016D8003850D8B472EF0BF074EF0BF078EF0BF0D2
:1016E800306C311ED8B0312A00018BBF80EF0BF06F
:1016F8007EEF0BF086EF0BF0000E356E010E346EA8
:101708008AEF0BF08AC034F08BC035F088C036F011
:1017180089C037F03850D8B494EF0BF096EF0BF03F
:10172800ADEF0BF03606D8A037063850D8A49FEF97
:101738000BF0A1EF0BF0A7EF0BF0000E336E2B0EA2
:10174800326EABEF0BF0000E336E2D0E326E32C0E0
:1017580038F0000E3A6E1F0E396E000E0101736FDD
:10176800E6EF0BF03906D8A03A06540E3924D96EA4
:10177800010E3A20DA6E30C013F031C014F0000EBA
:10178800166E0A0E156EB1EC1AF013C019F014C0DB
:101798001AF044EC27F01950300FDF6E3406D8A049
:1017A80035063606D8A0370630C013F031C014F01D
:1017B800000E166E0A0E156ED4EC18F013C030F039
:1017C80014C031F03ABEF1EF0BF03A5008E1390499
:1017D800D8A0F1EF0BF0F3EF0BF009EF0CF030505D
:1017E8003110D8A4FAEF0BF0FCEF0BF0B6EF0BF0CA
:1017F80035BE09EF0CF0355006E13404D8B007EFD8
:101808000CF009EF0CF0B6EF0BF03850D8B40FEF2E
:101818000CF011EF0CF01CEF0CF03906D8A03A06CA
:10182800540E3924D96E010E3A20DA6E38C0DFFF23
:101838002EC023F02FC024F0540E3924256E010E3B
:101848003A20266E36C027F037C028F040EC21F049
:101858001200010E1A6E16501710D8A436EF0CF0AD
:1018680038EF0CF03CEF0CF0000E1A6EECEF0CF0B9
:1018780016C013F017C014F0A7EC22F020EE01F008
:101888001650D9261750DA22DF50D8A44EEF0CF0A4
:1018980050EF0CF097EF0CF070EF0CF0BD50F00B20
:1018A8000209BD6EECEF0CF0BD50F00B0809BD6EDF
:1018B800ECEF0CF0BD50F00B0909BD6EECEF0CF02D
:1018C800BD50F00B0A09BD6EECEF0CF0BD50F00BEB
:1018D8000B09BD6EECEF0CF020EE03F01650D92684
:1018E8001750DA22DF50186E196A1950000AD8B456
:1018F80080EF0CF038EF0CF01850020AD8B452EF11
:101908000CF00A0AD8B458EF0CF0010AD8B45EEF0C
:101918000CF0030AD8B464EF0CF0010AD8B46AEFEB
:101928000CF038EF0CF020EE01F01650D9261750C5
:10193800DA22DE04D8A4A3EF0CF0A5EF0CF038EF00
:101948000CF0C5EF0CF0BA50F00B0209BA6EECEFD0
:101958000CF0BA50F00B0809BA6EECEF0CF0BA5064
:10196800F00B0909BA6EECEF0CF0BA50F00B0A094B
:10197800BA6EECEF0CF0BA50F00B0B09BA6EECEF44
:101988000CF020EE03F01650D9261750DA22DF505B
:10199800186E196A1950000AD8B4D5EF0CF038EF50
:1019A8000CF01850020AD8B4A7EF0CF00A0AD8B401
:1019B800ADEF0CF0010AD8B4B3EF0CF0030AD8B4B9
:1019C800B9EF0CF0010AD8B4BFEF0CF038EF0CF007
:1019D8001A50120013C01DF014C01EF01750181032
:1019E800D8A4F9EF0CF0FBEF0CF0FDEF0CF0A8EF2A
:1019F8000DF01DC0D9FF1EC0DAFF15C0DFFF17505C
:101A08001D24196E18501E201A6EFF0E1924D96E47
:101A1800FF0E1A20DA6E15C0DFFF185007E1030E1B
:101A2800175CD8B01AEF0DF01CEF0DF01EEF0DF09B
:101A3800A8EF0DF020EE01F01D50D9261E50DA2235
:101A480015C0DFFF20EE02F01D50D9261E50DA2205
:101A580015C0DFFF17501D24196E18501E201A6E6E
:101A6800FE0E1924D96EFF0E1A20DA6E15C0DFFF9C
:101A780017501D24196E18501E201A6EFD0E1924B9
:101A8800D96EFF0E1A20DA6E15C0DFFF185007E175
:101A9800070E175CD8B053EF0DF055EF0DF057EF68
:101AA8000DF0A8EF0DF020EE03F01D50D9261E50C2
:101AB800DA2215C0DFFF17501D24196E18501E209A
:101AC8001A6EFC0E1924D96EFF0E1A20DA6E15C094
:101AD800DFFF185007E1090E175CD8B076EF0DF05C
:101AE80078EF0DF07AEF0DF0A8EF0DF01DC019F0AA
:101AF8001EC01AF0191E1A1E194A1A2A030E1914A2
:101B08001B6E1C6A1B501D261C501E221B50175E84
:101B18001C50185AFC0E1716FF0E18169FEF0DF0E2
:101B28001DC0D9FF1EC0DAFF15C0DFFF1706D8A0F9
:101B380018061D4A1E2A17501810D8A4A6EF0DF033
:101B4800A8EF0DF094EF0DF01200010E1B6E13506C
:101B58001410D8B4B2EF0DF0B4EF0DF0D4EF0DF0CF
:101B680013C0D9FF14C0DAFFDF30E832E832070BC0
:101B7800156E080E1560C3EF0DF0C5EF0DF0D4EF2C
:101B88000DF013C0D9FF14C0DAFFDF50070B156E34
:101B9800040E1564D2EF0DF0D4EF0DF037EF0EF010
:101BA800000E1B6E58EF0EF013C0D9FF14C0DAFFF9
:101BB800DF30E832E832070B156E010E166E152A73
:101BC800E8EF0DF0D8901636152EE6EF0DF016500A
:101BD800FF0A176E13C0D9FF14C0DAFFDF50070BD6
:101BE800186E1850020DC80EF324D96E000EF4209A
:101BF800DA6EDECF19F0DDCF1AF019C0D9FF1AC09E
:101C0800DAFF1750DF1658EF0EF013C0D9FF14C0D3
:101C1800DAFFDF30E832E832070B156E010E166E78
:101C2800152A19EF0EF0D8901636152E17EF0EF06C
:101C380013C0D9FF14C0DAFFDF50070B176E175017
:101C4800020DC80EF324D96E000EF420DA6EDECF32
:101C580018F0DDCF19F018C0D9FF19C0DAFF1650F7
:101C6800DF1258EF0EF013C0D9FF14C0DAFFDFBC43
:101C780040EF0EF043EF0EF0010E44EF0EF0000EB1
:101C8800156E166A1650000AD8B44DEF0EF0D4EF50
:101C98000DF01550000AD8B4D8EF0DF0010AD8B4E9
:101CA80009EF0EF0D4EF0DF01B501200010E1A6E62
:101CB80016501710D8A463EF0EF065EF0EF069EF19
:101CC8000EF0000E1A6E05EF0FF016C013F017C0D5
:101CD80014F0A7EC22F020EE01F01650D926175088
:101CE800DA22DF50D8A47BEF0EF07DEF0EF0BAEFCA
:101CF8000EF097EF0EF0BD50F00B0409BD6E05EF26
:101D08000FF0BD50F00B0509BD6E05EF0FF0BD508B
:101D1800F00B0609BD6E05EF0FF0BD50F00B07097B
:101D2800BD6E05EF0FF020EE03F01650D9261750C0
:101D3800DA22DF50186E196A1950000AD8B4A7EFD2
:101D48000EF065EF0EF01850040AD8B47FEF0EF0CD
:101D5800010AD8B485EF0EF0030AD8B48BEF0EF061
:101D6800010AD8B491EF0EF065EF0EF020EE01F005
:101D78001650D9261750DA22DE04D8A4C6EF0EF082
:101D8800C8EF0EF065EF0EF0E2EF0EF0BA50F00B70
:101D98000409BA6E05EF0FF0BA50F00B0509BA6ED8
:101DA80005EF0FF0BA50F00B0609BA6E05EF0FF009
:101DB800BA50F00B0709BA6E05EF0FF020EE03F0EA
:101DC8001650D9261750DA22DF50186E196A1950A2
:101DD800000AD8B4F2EF0EF065EF0EF01850040ABE
:101DE800D8B4CAEF0EF0010AD8B4D0EF0EF0030A47
:101DF800D8B4D6EF0EF0010AD8B4DCEF0EF065EFD8
:101E08000EF01A501200000E266E000E276E000EFD
:101E1800256E000E246E000E236E1D501E10D8B4C1
:101E280018EF0FF01AEF0FF023EF0FF01F502010EC
:101E3800D8A421EF0FF023EF0FF025EF0FF0AFEF4D
:101E48000FF0000E266E000E256E25501D24136E11
:101E5800000E1E20146E000E156E58EC10F0252A88
:101E6800030E25643AEF0FF03CEF0FF029EF0FF067
:101E780026501D24136E000E1E20146E010E156EC2
:101E880058EC10F01A0E216EF80EE82EFED7212E0F
:101E9800FCD700D0000E276E27501D24216E000E9F
:101EA8001E20226E040E2124136E000E2220146EB2
:101EB800240E156E000E166E9AEC17F02404D8A4A2
:101EC80068EF0FF06AEF0FF086EF0FF02650040D61
:101ED800E10EF324216EFD0EF420226E27502126F8
:101EE800000E222221C0F6FF22C0F7FFF86A1FC0A9
:101EF800D9FF20C0DAFF0800F5CFDFFF010E236EFF
:101F08008FEF0FF0272A030E27648DEF0FF08FEF66
:101F18000FF050EF0FF02304D8A495EF0FF097EFD0
:101F28000FF099EF0FF0A2EF0FF0262A030E2664A8
:101F3800A0EF0FF0A2EF0FF027EF0FF02350D8A477
:101F4800A8EF0FF0AAEF0FF0AFEF0FF01FC0D9FF07
:101F580020C0DAFFDF6A1200000E0101786F000E60
:101F6800796F000E7A6F000E7B6F020E5C18D8A492
:101F7800C0EF0FF0C2EF0FF04FEF10F0000E3E6E03
:101F8800000E3F6E000E406E410E416E000E256E33
:101F9800000E266E800E276E400E286E0001BA5184
:101FA800B65D136EBB51B759146EBC51B859156E56
:101FB800BD51B959166E000EB8EC09F013C021F0E6
:101FC80014C022F015C023F016C024F0DDEC04F094
:101FD80021C03AF022C03BF023C03CF024C03DF0C1
:101FE800F2EC06F03AC0F2F03BC0F3F03CC0F4F07B
:101FF8003DC0F5F0EEEC13F0F2C074F1F3C075F1EA
:10200800F4C076F1F5C077F1000E3E6E000E3F6E1B
:10201800000E406E400E416EDF0E256E4F0E266E8E
:102028000D0E276E3D0E286E74C113F075C114F0A5
:1020380076C115F077C116F0000EB8EC09F013C0A0
:1020480021F014C022F015C023F016C024F0DDECF6
:1020580004F021C03AF022C03BF023C03CF024C079
:102068003DF0F2EC06F03AC0F2F03BC0F3F03CC0B1
:10207800F4F03DC0F5F0EEEC13F0F2C078F1F3C0E7
:1020880079F1F4C07AF1F5C07BF1000E5C6EBD50B9
:10209800F00B0509BD6E78C1FCF079C1FDF07AC17D
:1020A800FEF07BC1FFF01200010E1C6E13501410DD
:1020B800D8B461EF10F063EF10F083EF10F013C0A5
:1020C800D9FF14C0DAFFDF30E832E832070B166EAA
:1020D800080E166072EF10F074EF10F083EF10F036
:1020E80013C0D9FF14C0DAFFDF50070B166E040EB9
:1020F800166481EF10F083EF10F0E6EF10F0000E99
:102108001C6EFBEF10F013C0D9FF14C0DAFFDF30EC
:10211800E832E832070B166E010E176E162A97EF93
:1021280010F0D8901736162E95EF10F013C0D9FF7F
:1021380014C0DAFFDF50070B186E1850020DBE0EE0
:10214800F324D96E000EF420DA6EDECF19F0DDCF5D
:102158001AF019C0D9FF1AC0DAFF1750DF12FBEFC7
:1021680010F013C0D9FF14C0DAFFDF30E832E832CC
:10217800070B166E010E176E162AC5EF10F0D890D1
:102188001736162EC3EF10F01750FF0A186E13C03B
:10219800D9FF14C0DAFFDF50070B196E1950020D72
:1021A800BE0EF324D96E000EF420DA6EDECF1AF0DC
:1021B800DDCF1BF01AC0D9FF1BC0DAFF1850DF169D
:1021C800FBEF10F01550166E176A1750000AD8B4B6
:1021D800F0EF10F083EF10F01650000AD8B4B5EF06
:1021E80010F0010AD8B487EF10F083EF10F01C50FC
:1021F80012000600FACF0FF0FBCF10F0D9CF11F084
:10220800DACF12F0F2AA0BEF11F00DEF11F016EF82
:1022180011F0F2A412EF11F014EF11F016EF11F013
:10222800BFEC27F09DA01BEF11F01DEF11F026EF7A
:1022380011F09EA022EF11F024EF11F026EF11F01B
:10224800A3EC27F0A0A22BEF11F02DEF11F036EF41
:1022580011F0A1A232EF11F034EF11F036EF11F0C6
:10226800E0EC28F09DA43BEF11F03DEF11F046EFB4
:1022780011F09EA442EF11F044EF11F046EF11F077
:1022880040EC28F0A0A04BEF11F04DEF11F056EF05
:1022980011F0A1A052EF11F054EF11F056EF11F028
:1022A80028EC28F09DA85BEF11F05DEF11F066EFC8
:1022B80011F09EA862EF11F064EF11F066EF11F0D3
:1022C800FFEC28F09DAA6BEF11F06DEF11F076EF9F
:1022D80011F09EAA72EF11F074EF11F076EF11F081
:1022E800C5EC1FF09DA67BEF11F07DEF11F086EF96
:1022F80011F09EA682EF11F084EF11F086EF11F035
:10230800FDEC28F0A0A68BEF11F08DEF11F096EF01
:1023180011F0A1A692EF11F094EF11F096EF11F0E1
:10232800FEEC28F012C0DAFF11C0D9FF10C0FBFF85
:102338000FC0FAFF6D921100010174517511D8A4F4
:10234800A8EF11F0AAEF11F0ACEF11F03EEF12F088
:10235800C69A20EE06F07451D9267551DA22DFA00C
:10236800B8EF11F0BAEF11F0C2EF11F074C1FCF040
:1023780075C1FDF054EC1CF0FEEF11F020EE06F0F4
:102388007451D9267551DA22DFB0CDEF11F0CFEFB5
:1023980011F0FEEF11F020EE06F07451D9267551B8
:1023A800DA22DFA6DAEF11F0DCEF11F0DFEF11F03F
:1023B800C58EEDEF11F020EE06F07451D926755157
:1023C800DA22DFB6EAEF11F0ECEF11F0EDEF11F0E1
:1023D800C59EC69EC69CC68820EE05F07451D926B7
:1023E8007551DA22DF50C86E74C113F075C114F04C
:1023F800CAEC28F0F7EC28F0010120EE06F0745141
:10240800D9267551DA22DFB20CEF12F00EEF12F076
:1024180011EF12F0C79E1FEF12F020EE06F0745174
:10242800D9267551DA22DFA21CEF12F01EEF12F046
:102438001FEF12F0C78E20EE06F07451D9267551A1
:10244800DA22DFA42AEF12F02CEF12F02FEF12F0AD
:10245800C78C3DEF12F020EE06F07451D926755165
:10246800DA22DFB43AEF12F03CEF12F03DEF12F04F
:10247800C79CC68A12003DC0D9FF3EC0DAFFDECF36
:10248800F6FFDDCFF7FFF86A0800F550250AD8A453
:1024980050EF12F052EF12F0BFEF12F03DC0D9FF2B
:1024A8003EC0DAFFDE2A000EDD22000E0001896F31
:1024B800000E886F88C0AAF08A698B693DC0D9FF71
:1024C8003EC0DAFFDECF47F0DDCF48F047C0F6FF69
:1024D80048C0F7FFF86A0800F550640AD8B477EFE7
:1024E80012F079EF12F088EF12F047C0F6FF48C0FB
:1024F800F7FFF86A0800F550690AD8A486EF12F0C9
:1025080088EF12F0B6EF12F03FC0D9FF40C0DAFFF3
:10251800DFCF41F0020EDE26DFCF42F0000EDD22D3
:1025280041C0D9FF42C0DAFFDECF43F0DDCF44F02F
:10253800010E4724416E000E4820426E3DC0D9FF6F
:102548003EC0DAFF41C0DEFF42C0DDFF3BC02EF0D7
:102558003CC02FF043C030F044C031F062EC0BF0C7
:10256800D4EF12F03DC0D9FF3EC0DAFFDE2A000EDC
:10257800DD22D4EF12F03DC0D9FF3EC0DAFFDECF36
:10258800F6FFDDCFF7FFF86A0800F550136E146AFE
:102598003BC015F03CC016F06FEC18F0B6EF12F027
:1025A800120074EC26F036EC19F0240E1D6E010EA4
:1025B8001E6E620E1F6E000E206E07EC0FF0300EBE
:1025C8006264E9EF12F0EBEF12F0F5EF12F0350E5E
:1025D8006260F1EF12F0F3EF12F0F5EF12F062C063
:1025E80063F06350D8A4FBEF12F0FDEF12F001EF97
:1025F80013F056EC23F05CEF13F0310E6318D8A4F7
:1026080008EF13F00AEF13F00EEF13F062EC13F07B
:102618005CEF13F0320E6318D8A415EF13F017EF20
:1026280013F01BEF13F0BFEC08F05CEF13F0330E60
:102638006318D8A422EF13F024EF13F028EF13F057
:1026480054EC16F05CEF13F0340E6318D8A42FEF97
:1026580013F031EF13F035EF13F0E3EC15F05CEF06
:1026680013F0440E6318D8A43CEF13F03EEF13F0B8
:1026780042EF13F092EC0AF05CEF13F0450E63188A
:10268800D8A449EF13F04BEF13F04FEF13F0A3EC7E
:102698001CF05CEF13F0460E6318D8A456EF13F045
:1026A80058EF13F05CEF13F003EC21F05CEF13F03C
:1026B80086EC25F0D9EF12F007EF00F0050E186E42
:1026C800A00ED5EC1DF001017A6F640E216E000E8C
:1026D800226E010E236E8FEC23F0640E2B6E000E1B
:1026E8002C6E010E2D6E010E2E6E0D0E2F6EFF0E2E
:1026F800306E8AEC1DF0640E2B6E000E2C6E020EEE
:102708002D6E040E2E6E1B0E2F6EFE0E306E8AEC92
:102718001DF097EC19F00101796F7905D8A497EFAE
:1027280013F099EF13F09BEF13F0E3EF13F0640E3F
:10273800216E000E226E010E236E8FEC23F0AE0E7A
:10274800136E000E146EE60E156E000E166E5CEC1F
:1027580025F00101786F7805D8A4B5EF13F0B7EF2D
:1027680013F0C2EF13F0050E186E010E196EA00ECD
:10277800A1EC24F072EC14F0E3EF13F0030E7A19D5
:10278800D8A4C9EF13F0CBEF13F0D6EF13F0C2ECD7
:1027980016F0050E186E7AC119F0A00EA1EC24F0FF
:1027A80069EF13F06DEC24F001017A2B050E186E19
:1027B8007AC119F0A00EA1EC24F069EF13F0640EB1
:1027C800216E000E226E010E236E8FEC23F0000E98
:1027D800636E12000001F435F535FB6FFB51D8A488
:1027E800F8EF13F0FAEF13F004EF14F0000EF26FA5
:1027F800000EF36F000EF46F000EF56F71EF14F01A
:10280800F2C0F6F0F3C0F7F0F4C0F8F0F5C0F9F054
:10281800200E14EF14F0D890F933F833F733F63369
:10282800E82E0FEF14F0F651FA6FF48FFF0EF2173F
:10283800FF0EF317FF0EF417000EF517960EFB5F49
:10284800FBBF2BEF14F029EF14F041EF14F0FB510C
:10285800800A970FD8B033EF14F035EF14F037EF44
:1028680014F0FAEF13F0D890F533F433F333F2336E
:10287800FB3F37EF14F059EF14F01F0EFB6547EFDD
:1028880014F049EF14F051EF14F0FAEF13F0D89068
:10289800F237F337F437F537FB07FB51D8A457EF76
:1028A80014F059EF14F04BEF14F0FA51D8B45FEF6D
:1028B80014F061EF14F069EF14F0F51FF41FF31F23
:1028C800F26D000EF323F423F523F2C0F2F0F3C007
:1028D800F3F0F4C0F4F0F5C0F5F01200000E346E19
:1028E800640E2B6E000E2C6E010E2D6E010E2E6ED8
:1028F800300E2F6EFF0E306E8AEC1DF0640E2B6EBC
:10290800000E2C6E020E2D6E040E2E6E1B0E2F6EF8
:10291800FE0E306E8AEC1DF097EC19F0336E3350D2
:10292800D8A499EF14F09BEF14F0EEEF14F0000E1A
:10293800186EAE0E196E000E1A6E040E1B6EA00EE7
:102948001FEC1EF0000E346EAE0E3424D96EDA6A17
:10295800000EDA22B20E3424E16EE26A000EE222A0
:10296800DFCFE7FF342A030E3464BDEF14F0BFEF66
:1029780014F0A8EF14F0640E216E000E226E010E02
:10298800236E8FEC23F0640E2B6E000E2C6E010E5E
:102998002D6E010E2E6E400E2F6EFF0E306E8AECDD
:1029A8001DF0640E2B6E000E2C6E020E2D6E010EA5
:1029B8002E6E1F0E2F6EFF0E306E8AEC1DF0100E5D
:1029C800326E390E316E0E0EE82EFED7312EFCD740
:1029D800322EFAD733501200206E000E216E000EF0
:1029E800226EDA0E136E000E146E4DEC26F0DA0E1F
:1029F800136E000E146E20C015F0210E166E000E18
:102A0800176EF5EC21F0DA0E136E000E146E18C076
:102A180015F0210E166E000E176EF5EC21F0DA0E89
:102A2800136E000E146E83EC28F0DA0E136E000E8F
:102A3800146E20500109156E210E166E000E176EC9
:102A4800F5EC21F05CEF15F022501C6E1D6AFF0EAC
:102A58001B241E6E1F6AFF0E1F221C501E1807E142
:102A68001D501F18D8A43BEF15F03DEF15F04DEFA2
:102A780015F0DA0E136E000E146E010E156E22504C
:102A88001924166E000E1A20176EE2EC22F065EF7C
:102A980015F0DA0E136E000E146E000E156E22502D
:102AA8001924166E000E1A20176EE2EC22F0222A64
:102AB8001B50225CD8A063EF15F065EF15F028EFE6
:102AC80015F0DA0E136E000E146E26EC26F01200C6
:102AD800010E256E21502210D8A475EF15F077EF5E
:102AE80015F079EF15F0E2EF15F020EE01F0215026
:102AF800D9262250DA22DF50D8A485EF15F087EFC7
:102B080015F08BEF15F0F00EBD16B7EF15F020EEAF
:102B180001F02150D9262250DA22DE04D8A497EFFA
:102B280015F099EF15F09DEF15F0F00EBA16B7EF06
:102B380015F0000E256EB7EF15F021C016F022C073
:102B480017F05AEC0EF02516D2EF15F021C016F04A
:102B580022C017F02DEC0CF02516D2EF15F0000E60
:102B6800256ED2EF15F020EE02F02150D926225022
:102B7800DA22DF50236E246A2450000AD8B4C7EF43
:102B880015F0B3EF15F02350000AD8B4A1EF15F0F3
:102B9800010AD8B4AAEF15F0B3EF15F0040E2124FA
:102BA8001D6E000E22201E6E3CEC1FF0251621C063
:102BB80015F022C016F0B9EC21F025161200640EAB
:102BC800216E000E226E010E236E8FEC23F0640E30
:102BD8002B6E000E2C6E010E2D6E030E2E6EDD0E6A
:102BE8002F6EFF0E306E8AEC1DF0640E216E000E03
:102BF800226EABC023F0C8EC23F0310E0001AB19F4
:102C0800D8A409EF16F00BEF16F017EF16F0640EC4
:102C1800256E000E266EEF0E276EFF0E286E31EC25
:102C280025F021EF16F0640E256E000E266EE70ED5
:102C3800276EFF0E286E31EC25F0640E2B6E000E09
:102C48002C6E020E2D6E060E2E6EB70E2F6EFE0E19
:102C5800306E8AEC1DF0640E2B6E000E2C6E030E87
:102C68002D6E050E2E6E9A0E2F6EFF0E306E8AECAC
:102C78001DF0090E326E1E0E316EE40EE82EFED7E0
:102C8800312EFCD7322EFAD700D0000E636E640EB8
:102C9800216E000E226E010E236E8FEC23F01200BF
:102CA800640E216E000E226E010E236E8FEC23F04F
:102CB800640E2B6E000E2C6E010E2D6E010E2E6E04
:102CC800DD0E2F6EFF0E306E8AEC1DF0640E216E45
:102CD800000E226E0001AB516508236EC8EC23F08C
:102CE800650E316E000E326E0001AB51315E000E82
:102CF800325A310E31183210D8A485EF16F087EF0A
:102D080016F093EF16F0640E256E000E266EF60E82
:102D1800276EFF0E286E31EC25F09DEF16F0640E3D
:102D2800256E000E266E070E276EFF0E286E31ECFC
:102D380025F0640E2B6E000E2C6E020E2D6E010E09
:102D48002E6E500E2F6EFF0E306E8AEC1DF0090E9F
:102D5800326E1E0E316EE40EE82EFED7312EFCD7F1
:102D6800322EFAD700D0000E636E640E216E000E6C
:102D7800226E010E236E8FEC23F01200000E01016B
:102D8800746F000E756F000E766F000E776F050E6C
:102D98005B6E640E2B6E000E2C6E010E2D6E010EF6
:102DA8002E6E1D0E2F6EFE0E306E8AEC1DF0640E18
:102DB8002B6E000E2C6E020E2D6E010E2E6EA80EBE
:102DC8002F6EFF0E306E8AEC1DF0640E2B6E000E17
:102DD8002C6E030E2D6E010E2E6EB60E2F6EFF0E8C
:102DE800306E8AEC1DF06B0E1D6E000E1E6E31ECFF
:102DF80022F0340E166E010E176EF2EC1CF01AEF6C
:102E080017F0740E596E010E5A6E5B5056EC1AF09C
:102E1800640E2B6E000E2C6E040E2D6E060E2E6E9A
:102E2800740E2F6E010E306E8AEC1DF05B50D8A424
:102E380020EF17F022EF17F005EF17F0340E136E9E
:102E4800010E146EBBEC28F06B0E1D6E000E1E6E8C
:102E58006CEC22F0120020EE07F01350D926145023
:102E6800DA22DFAA3AEF17F03CEF17F099EF17F0E4
:102E7800AB8820EE07F01350D9261450DA22DFACC5
:102E880048EF17F04AEF17F04DEF17F09D8A5BEF08
:102E980017F020EE07F01350D9261450DA22DFBCC1
:102EA80058EF17F05AEF17F05BEF17F09D9A20EEE6
:102EB8000CF01350D9261450DA22DECF92F0DDCF71
:102EC80093F020EE0EF01350D9261450DA22DECFFC
:102ED80090F0DDCF91F020EE10F01350D926145069
:102EE800DA22DECF8EF0DDCF8FF0F28EF28C20EE7C
:102EF80007F01350D9261450DA22DFAE86EF17F008
:102F080088EF17F08BEF17F0AB8C99EF17F020EEE6
:102F180007F01350D9261450DA22DFBE96EF17F0C7
:102F280098EF17F099EF17F0AB9C1200010E1C6E8A
:102F380013501410D8B4A3EF17F0A5EF17F0CEEF85
:102F480017F015501610D8B4ACEF17F0AEEF17F015
:102F5800CEEF17F013C0D9FF14C0DAFFDF30E83224
:102F6800E832070B176E080E1760BDEF17F0BFEFBA
:102F780017F0CEEF17F013C0D9FF14C0DAFFDF50F7
:102F8800070B176E040E1764CCEF17F0CEEF17F08F
:102F9800D2EF17F0000E1C6E03EF18F013C0D9FF24
:102FA80014C0DAFFDF30E832E832070B176E13C0BF
:102FB800D9FF14C0DAFFDF50070B186E1850020D46
:102FC800000EF324D96E010EF420DA6EDECF19F06C
:102FD800DDCF1AF019C0D9FF1AC0DAFFDF501B6E17
:102FE800172AF9EF17F0D8901B32172EF7EF17F0C2
:102FF8001B50010B15C0D9FF16C0DAFFDF6E1C503D
:103008001200000E2A6E25502610D8A40EEF18F0D4
:1030180010EF18F012EF18F06EEF18F025C01DF041
:1030280026C01EF03CEC1FF0296E010E25241D6EF3
:10303800000E26201E6E3CEC1FF0296E000E2A6E34
:103048002A502524276E000E2620286E020E2724DB
:103058001D6E000E28201E6E3CEC1FF02A2A030E5F
:103068002A6439EF18F03BEF18F024EF18F025C068
:1030780021F026C022F0330E236E8FEC23F0640E6D
:10308800E82EFED725C021F026C022F0320E236E8E
:103098008FEC23F025C021F026C022F0280E236EE5
:1030A8008FEC23F025C021F026C022F0010E236EFC
:1030B8008FEC23F025C021F026C022F0060E236EE7
:1030C8008FEC23F025C021F026C022F00C0E236ED1
:1030D8008FEC23F0120015501610D8B476EF18F0C4
:1030E80078EF18F081EF18F015501610D8A47FEF7C
:1030F80018F081EF18F086EF18F01350FCEC28F068
:10310800D3EF18F020EE0AF01550D9261650DA221F
:10311800DE50DE10D8B493EF18F095EF18F0B0EF4A
:1031280018F020EE0AF01550D9261650DA2210EEC3
:1031380003F01550E1261650E222DE50E65CE65018
:10314800800A1B6EDE50800A1B58D8B0AEEF18F00C
:10315800B0EF18F0D3EF18F020EE03F01550D92691
:103168001650DA22DECF17F0DDCF18F015C0D9FFE0
:1031780016C0DAFFDECF19F0DDCF1AF01750192488
:10318800D96E18501A20DA6E13C0DFFF20EE03F054
:103198001550D9261650DA22DE2A000EDD2212003A
:1031A800000E186E16BEDDEF18F0DBEF18F0E3EF37
:1031B80018F0156C161ED8B0162A010E186E14BE1B
:1031C800EAEF18F0E8EF18F0F0EF18F0136C141E9F
:1031D800D8B0142A010E181A000E1A6E000E196EB5
:1031E80015501610D8B4FBEF18F0FDEF18F025EFC6
:1031F80019F0010E176E05EF19F0D890153616362E
:10320800172A16AE0AEF19F00CEF19F001EF19F0B2
:10321800D89019361A361550135C16501458D8A081
:1032280018EF19F01AEF19F01FEF19F01550135E87
:103238001650145A1980D89016321532172E0CEFE2
:1032480019F01850D8B42BEF19F02DEF19F031EF11
:1032580019F0196C1A1ED8B01A2A19C013F01AC01E
:1032680014F01200640E2B6E000E2C6E010E2D6EE3
:10327800010E2E6E320E2F6EFE0E306E8AEC1DF091
:10328800640E2B6E000E2C6E020E2D6E010E2E6E2D
:10329800080E2F6EFE0E306E8AEC1DF0640E2B6E3B
:1032A800000E2C6E030E2D6E010E2E6EF10E2F6E7B
:1032B800FD0E306E8AEC1DF0640E316E000E326E1B
:1032C800040E336E0C0E346E1C0E356E010E366E07
:1032D800000E376EC5EC20F0090E3A6E1E0E396EE0
:1032E800E40EE82EFED7392EFCD73A2EFAD700D0B6
:1032F800640E216E000E226E010E236E8FEC23F0F9
:10330800000E186EB20E196E000E1A6E040E1B6EA9
:10331800A00EF0EC14F0060E186EA00ED5EC1DF001
:103328000001AB6F1200000E2A6E030E296E080E04
:10333800286E770EE82EFED7282EFCD7292EFAD72E
:1033480000F0000E2B6E240E1D6E010E1E6E620E16
:103358001F6E000E206E07EC0FF02F0E6264B7EFA1
:1033680019F0B9EF19F0DFEF19F03A0E6260BFEF0C
:1033780019F0C1EF19F0DFEF19F0640E216E000E9D
:10338800226E62C023F0C8EC23F0AE0E2B24D96E57
:10339800DA6A000EDA2262C0DFFF030E296E560ECB
:1033A800286E630EE82EFED7282EFCD7292EFAD7D2
:1033B80000F0EDEF19F0430E6218D8A4E6EF19F00B
:1033C800E8EF19F0ECEF19F0010E2A6EF6EF19F09C
:1033D8002B062B2A030E2B64F4EF19F0F6EF19F0E5
:1033E800A7EF19F02A5012005C50D8A4FEEF19F08C
:1033F80000EF1AF021EF1AF0000E0001A96F000E7D
:10340800A86F000EBA6F000EBB6F000EBC6F000EE7
:10341800BD6F010E5C6E2C0E016E010E026EBA0EAF
:10342800036E000E046E61EC1BF0F00EBD16BD506D
:10343800F00B0409BD6E55EF1AF05C04D8A427EF11
:103448001AF029EF1AF055EF1AF0000E0001B66FC6
:10345800000EB76F000EB86F000EB96F020E5C6EEB
:103468002C0E016E010E026EB60E036E000E046E77
:1034780061EC1BF00001A8510B6EA9510C6E0D6A8E
:103488000E6A0CC00EF00BC00DF00C6A0B6A0B50E4
:10349800B6270C50B7230D50B8230E50B923F00EA1
:1034A800BD1612000001FC6F000E0001F86F000E3F
:1034B800F96F000EFA6F000EFB6F000EFD6F59508A
:1034C8005A10D8A46AEF1AF06CEF1AF06EEF1AF0DF
:1034D800B0EF1AF059C013F05AC014F0000E166E6F
:1034E800200E156E000E186E040E176EEEEC0CF022
:1034F800F80E516E000E526EFB0E536EFF0E546E98
:10350800FCC055F0566AAEEC25F09AEF1AF0F80EAA
:10351800FD25D96EDA6A000EDA22FD515924E16ED2
:10352800000E5A20E26EDFCFE7FFFD2BF80E0001F8
:10353800FD25D96EDA6A000EDA22DF50D8A4A7EF8B
:103548001AF0A9EF1AF08BEF1AF020EE03F0595099
:10355800D9265A50DA22DF6A1200000E186E14BEFD
:10356800BAEF1AF0B8EF1AF0C0EF1AF0136C141E85
:10357800D8B0142A010E186E16BEC7EF1AF0C5EFA0
:103588001AF0CBEF1AF0156C161ED8B0162A155083
:103598001610D8B4D2EF1AF0D4EF1AF0F8EF1AF0E8
:1035A800010E176EDCEF1AF0D89015361636172A6A
:1035B80016AEE1EF1AF0E3EF1AF0D8EF1AF0155053
:1035C800135C16501458D8A0ECEF1AF0EEEF1AF06E
:1035D800F2EF1AF01550135E1650145AD89016329E
:1035E8001532172EE3EF1AF01850D8B4FEEF1AF080
:1035F80000EF1BF004EF1BF0136C141ED8B0142A54
:1036080013C013F014C014F0120025502610D8A4CB
:1036180010EF1BF012EF1BF014EF1BF060EF1BF024
:10362800280643EF1BF025C021F026C022F02850C1
:10363800800F236E8FEC23F060EF1BF025C021F084
:1036480026C022F02850C00F236E8FEC23F060EFC5
:103658001BF025C021F026C022F02850940F236EBD
:103668008FEC23F060EF1BF025C021F026C022F07C
:103678002850D40F236E8FEC23F060EF1BF02750F7
:10368800296E2A6A2A50000AD8B44DEF1BF012EFAF
:103698001BF02950010AD8B417EF1BF0030AD8B45D
:1036A80022EF1BF0010AD8B42DEF1BF0070AD8B49B
:1036B80038EF1BF012EF1BF01200A2C009F0A3C0F4
:1036C8000AF003500410D8B46CEF1BF06EEF1BF037
:1036D80077EF1BF001500210D8A475EF1BF077EFBD
:1036E8001BF079EF1BF0B3EF1BF020EE01F0015057
:1036F800D9260250DA22DF50D8A485EF1BF087EFD5
:103708001BF08DEF1BF0BECF09F0BFCF0AF0A1EF81
:103718001BF020EE01F00150D9260250DA22DE0417
:10372800D8A499EF1BF09BEF1BF0A1EF1BF0BBCFC8
:1037380009F0BCCF0AF0A1EF1BF00950056E0A5042
:10374800066E076A086A03C0D9FF04C0DAFF05C01D
:10375800DEFF06C0DEFF07C0DEFF08C0DEFF120086
:1037680015501610D8A4BBEF1BF0BDEF1BF0BFEF30
:103778001BF003EF1CF0CD9020EE04F01550D92675
:103788001650DA22DF50030B176E173ACD50171870
:10379800CF0B1718CD6E15C013F016C014F008EC37
:1037A80020F020EE02F01550D9261650DA22DECF8E
:1037B80017F0DDCF18F018C017F0186A1750CF6E41
:1037C80020EE02F01550D9261650DA22DF50CE6EC0
:1037D80020EE02F01550D9261650DA22DECF98F0E6
:1037E800DDCF99F09D809E9015C0D9FF16C0DAFFF5
:1037F800DECF9AF0DDCF9BF0F28EF28CCD801200F6
:1038080015501610D8A40BEF1CF00DEF1CF00FEF9D
:103818001CF053EF1CF0B19020EE04F01550D9269F
:103828001650DA22DF50030B176E173AB1501718EB
:10383800CF0B1718B16E15C013F016C014F086EC34
:1038480020F020EE02F01550D9261650DA22DECFED
:1038580017F0DDCF18F018C017F0186A1750B36EBC
:1038680020EE02F01550D9261650DA22DF50B26E3B
:1038780020EE02F01550D9261650DA22DECF94F049
:10388800DDCF95F0A082A19215C0D9FF16C0DAFF4E
:10389800DECF96F0DDCF97F0F28EF28CB180120079
:1038A800000120EE04F0FC51D926FD51DA22DF5048
:1038B800FE6FC650FE19F00BFE19C66E000E576E4D
:1038C800000E586E800E596EBF0E5A6EFCC0D9FF9E
:1038D800FDC0DAFFDECF13F0DECF14F0DECF15F037
:1038E800DECF16F0000EB8EC09F013C03EF014C09D
:1038F8003FF015C040F016C041F0000E3A6E240E9D
:103908003B6EF40E3C6E490E3D6EF2EC06F03AC08A
:1039180053F03BC054F03CC055F03DC056F07CEC31
:1039280002F053C0F2F054C0F3F055C0F4F056C0A2
:10393800F5F0EEEC13F00001F251C86E1200640EBF
:10394800216E000E226E010E236E8FEC23F0640EA2
:103958002B6E000E2C6E010E2D6E010E2E6E6E0E4D
:103968002F6EFF0E306E8AEC1DF0640E2B6E000E6B
:103978002C6E020E2D6E010E2E6ED40E2F6EFE0EC4
:10398800306E8AEC1DF000EC27F06A0E1D6E000EFA
:103998001E6E31EC22F06350D8A4D5EF1CF0D7EF9F
:1039A8001CF0CFEF1CF0350E0001AB19D8B4DFEFD7
:1039B8001CF0E1EF1CF0E2EF1CF0AB2B22EC27F03F
:1039C8006A0E1D6E000E1E6E6CEC22F0060E186E4E
:1039D800ABC019F0A00EA1EC24F01200165017107D
:1039E800D8A4F9EF1CF0FBEF1CF0FDEF1CF03EEF44
:1039F8001DF0D59E16C0D9FF17C0DAFFDECF9EF0A6
:103A0800DDCF9FF0F28EF28CF28AF29416C013F09A
:103A180017C014F005EC25F016C013F017C014F009
:103A280047EC20F016C013F017C014F084EC27F010
:103A380020EE02F01650D9261750DA22DECF9CF07D
:103A4800DDCF9DF020EE02F01650D9261750DA226D
:103A5800DECF18F0DDCF19F019C018F0196A185028
:103A6800D76E20EE02F01650D9261750DA22DF5012
:103A7800D66ED58E120020EE05F01350D9261450BC
:103A8800DA22DFAA4AEF1DF04CEF1DF089EF1DF096
:103A9800AC8A20EE05F01350D9261450DA22DFAC98
:103AA80058EF1DF05AEF1DF05DEF1DF09D886BEF8C
:103AB8001DF020EE05F01350D9261450DA22DFBC91
:103AC80068EF1DF06AEF1DF06BEF1DF09D9820EE7A
:103AD80005F01350D9261450DA22DFAE76EF1DF028
:103AE80078EF1DF07BEF1DF0AC8C89EF1DF020EE18
:103AF80005F01350D9261450DA22DFBE86EF1DF0E8
:103B080088EF1DF089EF1DF0AC9C12002B502C1093
:103B1800D8A491EF1DF093EF1DF095EF1DF0D4EFB1
:103B28001DF02BC025F02CC026F02DC027F02EC08C
:103B380028F009EC1BF0BBEF1DF02BC021F02CC0C6
:103B480022F02FC0F6FF30C0F7FF000EF86E0F0E00
:103B5800F76403D00800F55005D0F6CFE9FFF7CF9A
:103B6800EAFFEF50236EC8EC23F02F4A302A2FC00B
:103B7800F6FF30C0F7FF000EF86E0F0EF76403D0A3
:103B88000800F55005D0F6CFE9FFF7CFEAFFEF5070
:103B98000009D8A4D2EF1DF0D4EF1DF0A1EF1DF05D
:103BA8001200196E000E1B6E000E1A6EDA0E136EDE
:103BB800000E146E4DEC26F0DA0E136E000E146E25
:103BC80019C015F01B0E166E000E176EF5EC21F0DD
:103BD800DA0E136E000E146E18C015F01B0E166E5A
:103BE800000E176EF5EC21F0DA0E136E000E146E4F
:103BF80083EC28F0DA0E136E000E146E19500109CA
:103C0800156E1B0E166E000E176EF5EC21F0DA0E0F
:103C1800136E000E146E010E156E1A0E166E000E3F
:103C2800176EE2EC22F0DA0E136E000E146E26EC1C
:103C380026F01A5012001C6E000E1E6E000E1D6E2D
:103C4800DA0E136E000E146E4DEC26F0DA0E136EBB
:103C5800000E146E1CC015F01E0E166E000E176EA8
:103C6800F5EC21F0DA0E136E000E146E18C015F084
:103C78001E0E166E000E176EF5EC21F057EF1EF0B3
:103C8800DA0E136E000E146E1D501924D96E000E34
:103C98001A20DA6EDF50156E1E0E166E000E176EA5
:103CA800F5EC21F01D2A1B501D5CD8A05EEF1EF01C
:103CB80060EF1EF044EF1EF0DA0E136E000E146E65
:103CC80026EC26F01200C80EF66E4E0EF76E000EA9
:103CD800F86E01EE00F010EE3FF00900F5CFEEFFB0
:103CE800E550E150FAE1B00EF66E500EF76E000E98
:103CF800F86E00EEBEF010EE2CF00900F5CFEEFFE6
:103D0800E550E150FAE1DC0EF66E510EF76E000E4A
:103D1800F86E00EE64F010EE09F00900F5CFEEFF42
:103D2800E550E150FAE101EE3FF0350EEE6AE806A3
:103D3800FDE100EE80F03E0EEE6AE806FDE100EEE1
:103D48005BF0090EEE6AE806FDE16D906D920001E8
:103D5800D5EF12F05D50D8A4B4EF1EF0B6EF1EF008
:103D6800D2EF1EF0E10E016E000E026E000E046E20
:103D7800000E036EABEC28F0D20E016E000E026E40
:103D8800120E046EAC0E036E37EC24F0BA50F00B32
:103D98000809BA6E010E5D6EF4EF1EF05D04D8A43A
:103DA800D8EF1EF0DAEF1EF0F4EF1EF0E10E016E10
:103DB800000E026E000E046E000E036EABEC28F0CF
:103DC800D20E016E000E026E000E046EDC0E036E43
:103DD80037EC24F0BA50F00B0909BA6E000E5D6E8C
:103DE80012005E50D8A4FBEF1EF0FDEF1EF019EF95
:103DF8001FF0E10E016E000E026E000E046E000E42
:103E0800036EABEC28F0D20E016E000E026E110E9E
:103E1800046E940E036E37EC24F0BA50F00B0809C8
:103E2800BA6E010E5E6E3BEF1FF05E04D8A41FEF62
:103E38001FF021EF1FF03BEF1FF0E10E016E000EA7
:103E4800026E000E046E000E036EABEC28F0D20E6C
:103E5800016E000E026E010E046EF40E036E37EC56
:103E680024F0BA50F00B0909BA6E000E5E6E12000B
:103E78001D501E10D8B443EF1FF045EF1FF065EF3B
:103E88001FF01DC0D9FF1EC0DAFFDF30E832E8326C
:103E9800070B1F6E080E1F6054EF1FF056EF1FF040
:103EA80065EF1FF01DC0D9FF1EC0DAFFDF50070BFA
:103EB8001F6E040E1F6463EF1FF065EF1FF069EFBC
:103EC8001FF0000E206E7FEF1FF01DC013F01EC004
:103ED80014F0A9EC0DF0206E1DC013F01EC014F0F4
:103EE8001DC0D9FF1EC0DAFF000EDFBE010E156E21
:103EF80058EC10F0206E205012001D501E10D8A44F
:103F080088EF1FF08AEF1FF08EEF1FF0000E206E73
:103F1800C3EF1FF0020E1D24136E000E1E20146E38
:103F28001F50010B156E58EC10F0206E030E1D2467
:103F3800136E000E1E20146ED8901F30010B156EE4
:103F480058EC10F0206E040E1D24136E000E1E2077
:103F5800146E1F40E8423F0B010B156E58EC10F031
:103F6800206E050E1D24136E000E1E20146E1F38C1
:103F7800E8461F0B010B156E58EC10F0206E205010
:103F88001200000192519311D8B4CDEF1FF0CFEF7A
:103F98001FF0DBEF1FF002D8DBEF1FF00500FA6E11
:103FA8009251FD6E9351FE6EFF6AFA5012000001A5
:103FB80090519111D8B4E3EF1FF0E5EF1FF0F1EF46
:103FC8001FF002D8F1EF1FF00500FA6E9051FD6E58
:103FD8009151FE6EFF6AFA50120000018E518F1146
:103FE800D8B4F9EF1FF0FBEF1FF007EF20F002D86D
:103FF80007EF20F00500FA6E8E51FD6E8F51FE6EB0
:10400800FF6AFA501200120020EE04F01350D9266D
:104018001450DA22DFB413EF20F015EF20F018EF78
:1040280020F0CD9246EF20F020EE04F01350D92670
:104038001450DA22DFA423EF20F025EF20F046EF1A
:1040480020F0CD8220EE04F01350D9261450DA2245
:10405800DFB631EF20F033EF20F036EF20F0CD94CB
:1040680046EF20F020EE04F01350D9261450DA223F
:10407800DFA641EF20F043EF20F046EF20F0CD849B
:1040880046EF20F0120020EE05F01350D926145008
:10409800DA22DFA452EF20F054EF20F057EF20F09F
:1040A800D59A85EF20F020EE05F01350D92614504C
:1040B800DA22DFB462EF20F064EF20F085EF20F021
:1040C800D58A20EE05F01350D9261450DA22DFA243
:1040D80070EF20F072EF20F075EF20F0D59885EFA3
:1040E80020F020EE05F01350D9261450DA22DFB262
:1040F80080EF20F082EF20F085EF20F0D58885EF63
:1041080020F0120020EE04F01350D9261450DA22C1
:10411800DFB491EF20F093EF20F096EF20F0B1920A
:10412800C4EF20F020EE04F01350D9261450DA2200
:10413800DFA4A1EF20F0A3EF20F0C4EF20F0B182BC
:1041480020EE04F01350D9261450DA22DFB6AFEF70
:1041580020F0B1EF20F0B4EF20F0B194C4EF20F0DC
:1041680020EE04F01350D9261450DA22DFA6BFEF50
:1041780020F0C1EF20F0C4EF20F0B184C4EF20F0AC
:104188001200000E386E31503210D8A4CEEF20F055
:10419800D0EF20F0D2EF20F002EF21F031C021F073
:1041A80032C022F03750080DF350400F236E8FECC9
:1041B80023F0000E386E31C021F032C022F03850A2
:1041C8003524D96E000E3620DA6EDF50236EC8EC27
:1041D80023F0382A070E3864F4EF20F0F6EF20F0C9
:1041E800DFEF20F031C02BF032C02CF033C02DF0BF
:1041F80034C02EF037C02FF0BBEC26F01200640E4E
:10420800216E000E226E010E236E8FEC23F0640ED9
:104218002B6E000E2C6E010E2D6E010E2E6E8C0E66
:104228002F6EFF0E306E8AEC1DF0640E2B6E000EA2
:104238002C6E020E2D6E010E2E6ED40E2F6EFE0EFB
:10424800306E8AEC1DF000EC27F06B0E1D6E000E30
:104258001E6E31EC22F06350D8A435EF21F037EF11
:1042680021F02FEF21F022EC27F06B0E1D6E000ECF
:104278001E6E6CEC22F0120028BE45EF21F047EFCD
:1042880021F04DEF21F027C02CF028C02DF051EF80
:1042980021F0000E2D6E000E2C6E000E2B6E000EFF
:1042A8002A6E63EF21F0000E146E200E136E23C0E9
:1042B80015F024C016F06FEC18F02A4A2B2A2C505F
:1042C8002A5C2B50800A296E2D50800A2958D8A0C4
:1042D80070EF21F072EF21F057EF21F025C01CF0AC
:1042E80026C01DF023C01EF024C01FF0DEEC26F00F
:1042F8001200000E256E000E266E21502210D8A442
:1043080088EF21F08AEF21F08CEF21F0B8EF21F04F
:10431800000E256E255021241D6E000E22201E6ED3
:104328003CEC1FF0252A030E25649DEF21F09FEF3A
:1043380021F08EEF21F0000E266E26502124236EE8
:10434800000E2220246E040E2324136E000E242057
:10435800146EA9EC0DF0262A030E2664B6EF21F0A0
:10436800B8EF21F0A1EF21F01200010E196E1550DF
:104378001610D8A4C2EF21F0C4EF21F0D8EF21F035
:10438800000E196EF3EF21F015C013F016C014F0EB
:10439800F5EC27F0F3EF21F015C013F016C014F078
:1043A800DBEC27F0F3EF21F020EE01F01550D926D1
:1043B8001650DA22DF50176E186A1850000AD8B45F
:1043C800E8EF21F0C4EF21F01750000AD8B4C8EF85
:1043D80021F0010AD8B4D0EF21F0C4EF21F0195030
:1043E800120013501410D8B4FCEF21F0FEEF21F0A6
:1043F80007EF22F016501710D8A405EF22F007EFA8
:1044080022F009EF22F030EF22F015C0C9FF9EA676
:1044180010EF22F012EF22F00BEF22F09E96C5BCAF
:1044280018EF22F01AEF22F021EF22F016C0D9FF80
:1044380017C0DAFFDF6A30EF22F0C5AC26EF22F0B2
:1044480028EF22F030EF22F016C0D9FF17C0DAFFAC
:10445800010EDF6E30EF22F0120060C020F01DC0A8
:10446800D9FF1EC0DAFFDF500F0B1F6E20501F1838
:10447800F80B1F18206E1DC0D9FF1EC0DAFFDF38E9
:10448800070B1F6E1F461F461F4620501F18C70BDD
:104498001F18206E209C1DC0D9FF1EC0DAFFDFAE9A
:1044A80002D0208E01D0209E1D501E10D8A45FEF90
:1044B80022F061EF22F063EF22F06BEF22F0200E82
:1044C800136E000E146E010E156E58EC10F01200EB
:1044D8005FC020F01DC0D9FF1EC0DAFFDF500F0BF0
:1044E8001F6E20501F18F80B1F18206E1DC0D9FF13
:1044F8001EC0DAFFDF38070B1F6E1F461F461F4618
:1045080020501F18C70B1F18206E209C1DC0D9FFF4
:104518001EC0DAFFDFAE02D0208E01D0209E1D50D3
:104528001E10D8A49AEF22F09CEF22F09EEF22F002
:10453800A6EF22F0200E136E000E146E000E156EFC
:1045480058EC10F0120013501410D8A4AEEF22F05B
:10455800B0EF22F0B2EF22F0E1EF22F013C0D9FF62
:1045680014C0DAFFDF50D8A4BCEF22F0BEEF22F06F
:10457800C2EF22F0B196B19CE1EF22F013C0D9FF4F
:1045880014C0DAFFDE04D8A4CCEF22F0CEEF22F07C
:10459800D2EF22F0B186B19CE1EF22F013C0D9FF2F
:1045A80014C0DAFF020EDE18D8A4DDEF22F0DFEF28
:1045B80022F0B0EF22F0B196B18C12001350141013
:1045C800D8B4E9EF22F0EBEF22F0F4EF22F0165026
:1045D8001710D8A4F2EF22F0F4EF22F0F6EF22F051
:1045E8001CEF23F0C586C7A0FCEF22F0FEEF22F0F7
:1045F800F7EF22F016C0D9FF17C0DAFFC9CFDFFFE7
:104608001550D8A40AEF23F00CEF23F010EF23F095
:10461800C59AC5881CEF23F01504D8A416EF23F01B
:1046280018EF23F01CEF23F0C58AC5881CEF23F090
:10463800120061C024F021C0D9FF22C0DAFFDF5088
:104648000F0B236E24502318F80B2318246E21C057
:10465800D9FF22C0DAFFDF38070B236E2346234633
:10466800234624502318C70B2318246E249C21C0EA
:10467800D9FF22C0DAFFDFAE02D0248E01D0249EFB
:1046880021502210D8A44BEF23F04DEF23F04FEF29
:1046980023F055EF23F0240E1D6E000E1E6E3CEC29
:1046A8001FF01200640E2B6E000E2C6E010E2D6E84
:1046B800010E2E6E5F0E2F6EFF0E306E8AEC1DF00F
:1046C800640E2B6E000E2C6E020E2D6E010E2E6ED9
:1046D800710E2F6EFE0E306E8AEC1DF0640E2B6E7E
:1046E800000E2C6E030E2D6E010E2E6EFA0E2F6E1E
:1046F800FE0E306E8AEC1DF0640E2B6E000E2C6ED2
:10470800040E2D6E010E2E6E850E2F6EFE0E306E6F
:104718008AEC1DF0120021502210D8A496EF23F045
:1047280098EF23F09CEF23F0000E246EC6EF23F0E1
:1047380021C013F022C014F0000E156E58EC10F0D2
:10474800246E21C01DF022C01EF023380F0B1F6EEF
:1047580081EC1FF0246E21C01DF022C01EF0FEEC7B
:1047680025F0246E21C01DF022C01EF023C01FF0CA
:1047780081EC1FF0246E21C01DF022C01EF0FEEC5B
:1047880025F0246E2450120021502210D8A4CFEF17
:1047980023F0D1EF23F0D5EF23F0000E246EFFEFC6
:1047A80023F021C013F022C014F0010E156E58EC4E
:1047B80010F0246E21C01DF022C01EF023380F0B0C
:1047C8001F6E81EC1FF0246E21C01DF022C01EF068
:1047D800FEEC25F0246E21C01DF022C01EF023C07F
:1047E8001FF081EC1FF0246E21C01DF022C01EF0C6
:1047F800FEEC25F0246E2450120013501410D8A497
:1048080008EF24F00AEF24F00CEF24F036EF24F040
:1048180015C018F016C019F020EE01F01350D92673
:104828001450DA22DF50D8A41CEF24F01EEF24F035
:1048380024EF24F018C0BEFF19C0BFFF36EF24F0E4
:1048480020EE01F01350D9261450DA22DE04D8A441
:1048580030EF24F032EF24F00AEF24F018C0BBFF49
:1048680019C0BCFF120001500210D8A43EEF24F07A
:1048780040EF24F042EF24F06CEF24F003C006F080
:1048880004C007F020EE01F00150D9260250DA22C8
:10489800DF50D8A452EF24F054EF24F05AEF24F05C
:1048A80006C0BEFF07C0BFFF6CEF24F020EE01F08A
:1048B8000150D9260250DA22DE04D8A466EF24F08B
:1048C80068EF24F040EF24F006C0BBFF07C0BCFF30
:1048D8001200640E2B6E000E2C6E010E2D6E010E52
:1048E8002E6EC40E2F6EFF0E306E8AEC1DF0640E15
:1048F8002B6E000E2C6E020E2D6E010E2E6EBA0E51
:104908002F6EFF0E306E8AEC1DF06B0E1D6E000EC2
:104918001E6E31EC22F00B0E326E260E316E5E0EDC
:10492800E82EFED7312EFCD7322EFAD76B0E1D6E2D
:10493800000E1E6E6CEC22F012001A6E000E1B6E3A
:10494800DA0E136E000E146E4DEC26F0DA0E136EAE
:10495800000E146E1AC015F01B0E166E000E176EA0
:10496800F5EC21F0DA0E136E000E146E18C015F077
:104978001B0E166E000E176EF5EC21F0DA0E136E94
:10498800000E146E19C015F01B0E166E000E176E71
:10499800F5EC21F0DA0E136E000E146E26EC26F0FC
:1049A800120013501410D8A4DCEF24F0DEEF24F02A
:1049B800E0EF24F004EF25F020EE01F01350D926A3
:1049C8001450DA22DF50D8A4ECEF24F0EEEF24F0F4
:1049D800F3EF24F0F00EBD169D9404EF25F020EEC1
:1049E80001F01350D9261450DA22DE04D8A4FFEFC0
:1049F80024F001EF25F0DEEF24F0F00EBA16A090B7
:104A0800120020EE05F01350D9261450DA22DFA048
:104A180010EF25F012EF25F022EF25F0D59620EEC5
:104A280004F01350D9261450DA22DF50156ED550F1
:104A38001518F80B1518D56E30EF25F020EE05F097
:104A48001350D9261450DA22DFB02DEF25F02FEFBE
:104A580025F030EF25F0D586120025502610D8A471
:104A680038EF25F03AEF25F04CEF25F05BEF25F015
:104A780025C021F026C022F027C0F6FF28C0F7FF86
:104A8800F86A0800F5CF23F0C8EC23F0274A282A53
:104A980027C0F6FF28C0F7FFF86A0800F55000099C
:104AA800D8A459EF25F05BEF25F03CEF25F0120074
:104AB800010E196E000E1A6E000E1A6E1A50152489
:104AC800D96E000E1620DA6E1A501324E16E000E0D
:104AD8001420E26EDE50E618D8B475EF25F077EFB3
:104AE80025F07BEF25F0000E196E84EF25F01A2AC9
:104AF800030E1A6482EF25F084EF25F062EF25F0AB
:104B0800195012006EEC28F0B0EC0FF0FCC080F0E9
:104B1800FDC081F0FEC082F0FFC083F0000180512B
:104B2800811182118311D8B49CEF25F09EEF25F0F6
:104B3800ADEF25F083518211811107E11F0E805DD1
:104B4800D8B0A9EF25F0ABEF25F0ADEF25F0440E76
:104B5800636E1200550E0001EA6F000EEB6F51C034
:104B6800ECF052C0EDF0000EF06F000EEF6F000E8B
:104B7800F76F000EF66FEC0E496E000E4A6E53C0CA
:104B88004BF054C04CF0EA0E4D6E000E4E6ED6EC53
:104B980025F00001EF515124D96EF0515220DA6E00
:104BA800DF6A12004BC04FF04CC050F0EAEF25F01E
:104BB80049C03BF04AC03CF04F0E3D6E000E3E6EC1
:104BC8004DC03FF04EC040F03FEC12F04FC0F6FF32
:104BD80050C0F7FFF86A0800F5500009D8A4F7EFAD
:104BE80025F0F9EF25F0DCEF25F0000E4A6E000EF7
:104BF800496E12001D501E10D8A405EF26F007EFCD
:104C080026F00BEF26F0000E1F6E24EF26F0010EA3
:104C18001D24136E000E1E20146E010E156E58EC26
:104C280010F0C80E00D0E82EFDD7010E1D24136E1B
:104C3800000E1E20146E000E156E58EC10F01F6E3C
:104C48001F50120013501410D8A42DEF26F02FEF88
:104C580026F031EF26F04CEF26F0C584C5B437EFC7
:104C680026F039EF26F032EF26F09E96C7A83FEFE0
:104C780026F041EF26F043EF26F04CEF26F0C7B8B8
:104C880048EF26F04AEF26F04CEF26F02FEF26F0FB
:104C9800120013501410D8A454EF26F056EF26F043
:104CA80058EF26F073EF26F0C580C5B05EEF26F00A
:104CB80060EF26F059EF26F09E96C7A666EF26F01D
:104CC80068EF26F06AEF26F073EF26F0C7B66FEFAD
:104CD80026F071EF26F073EF26F056EF26F012005B
:104CE800640E256E000E266E05EC18F0240E216E5B
:104CF800010E226E7DEC21F098EC28F0D8EC28F01B
:104D08006A0E216E000E226E1DEC23F06B0E216ED2
:104D1800000E226E1DEC23F00A0E01017C6F010EBD
:104D28007D6F98EC26F0120001017C517D11D8A40A
:104D3800A0EF26F0A2EF26F0A4EF26F0BAEF26F0B7
:104D4800AB9E948C948E7CC1FCF07DC1FDF009EC87
:104D580000F07CC113F07DC114F03FEC1DF07CC164
:104D680013F07DC114F02FEC17F0AB8E1200010E7A
:104D7800306E2B502C10D8A4C4EF26F0C6EF26F0C6
:104D8800CAEF26F0000E306EDCEF26F02BC025F0BF
:104D98002CC026F02DC027F02EC028F009EC1BF0FF
:104DA8002BC021F02CC022F02FC023F0C8EC23F038
:104DB80030501200000E226E000E216EEFEF26F02A
:104DC80020C013F0146A1EC015F01FC016F06FEC57
:104DD80018F0214A222A21501C24D96E22501D2065
:104DE800DA6EDF50206E2050D8A4FDEF26F0FFEFDA
:104DF80026F0E4EF26F01200E10E156E000E166E96
:104E080004EC1CF0EA0E0001D76F3D0ED86FD20EED
:104E1800136E000E146ED5EC24F0D20E136E000E35
:104E2800146E010E166EF40E156E01EC24F0D20EFF
:104E3800216E000E226E6CEC15F01200E10E156E5C
:104E4800000E166E04EC1CF05C0E0001D76F3D0ED0
:104E5800D86FD20E136E000E146ED5EC24F0D20E5D
:104E6800136E000E146E000E166EDC0E156E01EC3D
:104E780024F0D20E216E000E226E6CEC15F012009A
:104E88001ABE51EF27F01A5006E11904D8B04FEFB7
:104E980027F051EF27F05FEF27F019C01BF01AC079
:104EA8001CF01B1E1C1E1B4A1C2A1BC019F01CC010
:104EB8001AF063EF27F019C019F01AC01AF012009F
:104EC800800F810F820F830F840F8025000003005D
:104ED800006000000000CE510000000000000A0041
:104EE800110E0000010911196169717901000005AD
:0F4EF80052F03300F451DC0B0405E651000000CA
:104F080020EE05F01350D9261450DA22DFA68FEFD1
:104F180027F091EF27F094EF27F0D58CA2EF27F038
:104F280020EE05F01350D9261450DA22DFB69FEF91
:104F380027F0A1EF27F0A2EF27F0D59C120000017F
:104F48009951CF6E98C0CEFF9E909A519B11D8B4BC
:104F5800B0EF27F0B2EF27F0BEEF27F002D8BEEF90
:104F680027F00500FA6E9A51FD6E9B51FE6EFF6A9E
:104F7800FA501200120000019D51D76E9CC0D6FF56
:104F8800F2949E519F11D8B4CCEF27F0CEEF27F0C2
:104F9800DAEF27F002D8DAEF27F00500FA6E9E5113
:104FA800FD6E9F51FE6EFF6AFA50120012001350F8
:104FB8001410D8A4E2EF27F0E4EF27F0E6EF27F08B
:104FC800F4EF27F0A080A19020EE05F01350D92629
:104FD8001450DA22DECFA4F0DDCFA5F0F28EF28CE9
:104FE800120013501410D8A4FCEF27F0FEEF27F09E
:104FF80000EF28F00EEF28F09D849E9420EE05F037
:105008001350D9261450DA22DECFA6F0DDCFA7F050
:10501800F28EF28C120001500210D8A416EF28F07C
:1050280018EF28F01AEF28F027EF28F09EAA1FEFB4
:1050380028F021EF28F027EF28F001C0D9FF02C09F
:10504800DAFFAECFDFFF1200A1900001A451A51135
:10505800D8B431EF28F033EF28F03FEF28F002D82A
:105068003FEF28F00500FA6EA451FD6EA551FE6EC3
:10507800FF6AFA50120012009E940001A651A7116F
:10508800D8B449EF28F04BEF28F057EF28F002D8B2
:1050980057EF28F00500FA6EA651FD6EA751FE6E77
:1050A800FF6AFA5012001200890F8A0F8B0F8C0FBB
:1050B8008D0F920F930F940F950F960F0101010911
:1050C8000A000000A0860100080003000000000399
:1050D800323532306C0E136E000E146E010E156EE2
:1050E80058EC10F0060EE82EFED700D06C0E136EAA
:1050F800000E146E000E156E58EC10F012001350CE
:105108001410D8A48AEF28F08CEF28F08EEF28F03E
:1051180097EF28F0C582C5B294EF28F096EF28F0F3
:105128008FEF28F09E9612006C0E1D6E000E1E6EFC
:105138003CEC1FF03A0E156E010E166EB4EC1BF027
:105148002C0E216E010E226E6CEC15F0120001502F
:105158000210D8A4B2EF28F0B4EF28F0B6EF28F088
:10516800BAEF28F00450B36E03C0B2FF1200135018
:105178001410D8A4C2EF28F0C4EF28F0C6EF28F026
:10518800C9EF28F0D59EF29AF294120020EE04F0AE
:105198001350D9261450DA22DF50156EC650151850
:1051A800F00B1518C66E1200DA0E0101746F000EAE
:1051B800756FA0EC11F0120000019551B36E94C008
:1051C800B2FFA1921200630E016E000E026E0FEC88
:0D51D80028F01200030B131B232B5202338F
:1051E6000001A84BA92B12009486948812005B0636
:0A51F6001200120012001200120055
:10FDE000003738392F3435362A3132332D43303D00
:10FDF0002B202020204D6F68616D6564204F73615A
:10FE00006D61202020202000202020202020204D57
:10FE10006164652062792020202020200050494E16
:10FE20002049532057524F4E4720332054494D45C7
:10FE3000530020536D6172742047617261676520C1
:10FE400053797374656D00506C6561736520456E00
:10FE5000746572207468652050696E0057656C6324
:10FE60006F6D65205369722C5468657265206973E3
:10FE700000323A456E746572204761726167652091
:10FE800050696E2000343A53686F7720667265655A
:10FE900020537061636573200020546F204F70659C
:10FEA0006E2054686520476172616765004E6F205F
:10FEB00053706163657320417661696C61626C6542
:10FEC00000456E74657220476172616765205069F4
:10FED0006E203A004F70656E696E67205468652029
:10FEE00047617261676500546865204761726167A8
:10FEF000652069732046756C6C00333A53686F77E0
:10FF0000204E756D206F66204361727300456E74DC
:10FF100065722041646D696E2050696E203A002040
:10FF20002020205375636365737366756C6C79006C
:10FF3000456E746572204E65772050696E203A00D8
:10FF40002020202050696E204368616E6765640040
:10FF5000496E2054686520476172616765200031F1
:10FF60003A536574204E65772050696E20004341F6
:10FF700052204953204C454156494E470050494E66
:10FF800020495320434F525245435400464952455D
:10FF900020444554454354454400496E2054686507
:10FFA0002047617261676500576169742031206D77
:10FFB000696E75746500416E6420547279204167E2
:10FFC00061696E0050494E2049532057524F4E47A9
:10FFD00000506C65617365205761697400546865F1
:10FFE000726520697320002053706163657300207F
:0FFFF00053706163650020436172002569000052
:020000040030CA
:0E000000FF02091EFF8181FF0FC00FE00F40BD
:00000001FF
