:100000000C942A000C9447000C9447000C94470071
:100010000C9447000C9447000C9447000C94470044
:100020000C9447000C9447000C9447000C94470034
:100030000C9447000C9447000C9447000C94630107
:100040000C9447000C9447000C9447000C94470014
:100050000C94470011241FBECFE5D8E0DEBFCDBF12
:1000600010E0A0E6B0E0E6E4F6E002C005900D92F4
:10007000A038B107D9F720E0A0E8B0E001C01D9298
:10008000A13BB207E1F70E944D000C9421030C94B0
:10009000000081E08093600008950E94770181E074
:1000A0000E944E010E94BB010E94B00069E470E012
:1000B0008EE00E945A010E94B300909383008093C7
:1000C0008200C297B8F00E94950086E40E94CD019C
:1000D00006C00E94B30090938300809382008091B9
:1000E000820090918300C297A0F70E949A0080E05E
:1000F0000E94CD010E949F0080938000813059F4BE
:1001000080918100811103C085E40E94CD0181E0CE
:1001100080938100D0CF80918100813061F680E0B2
:100120000E94CD0110928100C6CF61E085E10E945E
:100130000001089560E085E10E9400010895CF93D9
:10014000DF931F92CDB7DEB71982BE016F5F7F4F7D
:1001500089E00E94340189810F90DF91CF91089549
:100160000E94C600089580E00E94DB006091840038
:100170007091850080918600909187002AE030E0A0
:1001800040E050E00E94FF02C901089587B18064F9
:1001900087B987B18F7D87B986B1876086B986B107
:1001A0008F7D86B980B780BF86B1877F86B986B1DB
:1001B000806886B9089597B1892B87B986B1806424
:1001C00086B9349BFECF84B165B170E0762F662787
:1001D000682B072E000C880B990B0E9406022AE15F
:1001E00037E64CE950E40E946A020E94D501609310
:1001F0008400709385008093860090938700089513
:10020000E82FE695E695E69587706623B9F06130AC
:1002100051F5F0E0EE0FFF1FE159FF4F0190F08123
:10022000E02D408121E030E0B90102C0660F771F68
:100230008A95E2F7CB01842B80830895F0E0EE0FDE
:10024000FF1FE159FF4F0190F081E02D408121E037
:1002500030E0B90102C0660F771F8A95E2F7CB0143
:100260008095842380830895E82FE695E695E695AA
:10027000282F2770F0E0EE0FFF1FE959FF4F019084
:10028000F081E02D9081892F90E002C095958795AF
:100290002A95E2F78170FB0180830895882331F06D
:1002A000813039F48FB780688FBF08958FB78F770B
:1002B0008FBF0895E82FF0E0EE0FFF1FE857FF4FC4
:1002C0007183608308951F920F920FB60F921124CD
:1002D0008F9381E0809360008091B0008F5F809366
:1002E000B0008F910F900FBE0F901F90189520E0D7
:1002F0003EC0E22FF0E0EE0FFF1FEF59FF4F90815D
:10030000892F869586958695977031813323C1F024
:10031000313061F5E82FF0E0EE0FFF1FE958FF4F95
:100320000190F081E02D308141E050E0BA0102C03F
:10033000660F771F9A95E2F7CB01832B808316C057
:10034000E82FF0E0EE0FFF1FE958FF4F0190F0811A
:10035000E02D308141E050E0BA0102C0660F771F06
:100360009A95E2F7CB018095832380832F5F23301A
:1003700008F4BFCF089580B5866880BD8AB18068D3
:100380008AB98AB180648AB98AB188608AB98AB127
:1003900080618AB987E689B90895909160009130AB
:1003A00019F48CB91092600008950E94490288F0F7
:1003B0009F5798F0B92F9927B751B0F0E1F0660F29
:1003C000771F881F991F1AF0BA95C9F714C0B1306A
:1003D00091F00E946302B1E008950C946302672FCC
:1003E000782F8827B85F39F0B93FCCF38695779599
:1003F0006795B395D9F73EF4909580957095619582
:100400007F4F8F4F9F4F0895E89409C097FB3EF4AC
:1004100090958095709561957F4F8F4F9F4F992351
:10042000A9F0F92F96E9BB279395F69587957795CF
:100430006795B795F111F8CFFAF4BB0F11F460FF8F
:100440001BC06F5F7F4F8F4F9F4F16C0882311F0E7
:1004500096E911C0772321F09EE8872F762F05C0FB
:10046000662371F096E8862F70E060E02AF09A9596
:10047000660F771F881FDAF7880F9695879597F98B
:10048000089557FD9058440F551F59F05F3F71F084
:100490004795880F97FB991F61F09F3F79F08795EB
:1004A0000895121613061406551FF2CF4695F1DF74
:1004B00008C0161617061806991FF1CF8695710504
:1004C000610508940895E894BB2766277727CB0138
:1004D00097F908950E947D020C94EE020E94E002BA
:1004E00038F00E94E70220F0952311F00C94D70217
:1004F0000C94DD0211240C9464020E94410270F3FA
:10050000959FC1F3950F50E0551F629FF001729FB8
:10051000BB27F00DB11D639FAA27F00DB11DAA1FC7
:10052000649F6627B00DA11D661F829F2227B00D14
:10053000A11D621F739FB00DA11D621F839FA00D9F
:10054000611D221F749F3327A00D611D231F849FEF
:10055000600D211D822F762F6A2F11249F57504046
:100560009AF0F1F088234AF0EE0FFF1FBB1F661FC1
:10057000771F881F91505040A9F79E3F510580F08A
:100580000C94D7020C9464025F3FE4F3983ED4F3DA
:10059000869577956795B795F795E7959F5FC1F72E
:1005A000FE2B880F911D9695879597F9089597F9D9
:1005B0009F6780E870E060E008959FEF80EC089509
:1005C00000240A9416161706180609060895002432
:1005D0000A9412161306140605060895092E0394AC
:1005E000000C11F4882352F0BB0F40F4BF2B11F420
:1005F00060FF04C06F5F7F4F8F4F9F4F0895A1E250
:100600001A2EAA1BBB1BFD010DC0AA1FBB1FEE1F8C
:10061000FF1FA217B307E407F50720F0A21BB30BD7
:10062000E40BF50B661F771F881F991F1A9469F753
:1006300060957095809590959B01AC01BD01CF01AF
:060640000895F894FFCFBD
:100646000109001501190139003600330030003B5D
:10065600003800350032003A00370034003100001F
:00000001FF
